:100000000C940B0B0C941D0B0C941D0B0C941D0BE2
:100010000C941D0B0C941D0B0C941D0B0C94A21432
:100020000C941D0B0C941D0B0C941D0B0C94942E16
:100030000C941D0B0C941D0B0C941D0B0C941D0BA0
:100040000C947D2E0C941D0B0C941D0B0C941D0B0D
:100050000C941D0B0C941D0B0C941D0B0C941D0B80
:100060000C941D0B0C941D0BFB13FE1301140314B5
:1000700007140A142D142D14221425142D142D14D4
:1000800028142D142D142D142D142D142B14050AA1
:100090000605060A050A0609060A050A0609060AE9
:1000A000050A0609060A050A0609060A050A0605DA
:1000B0000A06090A06000010000000100000E01304
:1000C00000001C1C00000370008000900040001025
:1000D00001200C0802100C0404100C0204080C018E
:1000E00008088C0008084C0008042C0010041C00B0
:1000F00010FF0F0010041C0010042C0010084C000E
:1001000008088C0408080C0708100C0704108C075A
:1001100004200C08024000100180009000000370D1
:1001200000001C1C0000E013000000100000001084
:100130000000000000000010000000100000E013AC
:1001400000001C1C000003700080009000400010A4
:100150000120000802108C0404108C0304088C0396
:1001600008088C0708084C0008042C0010041C0028
:1001700010FF0F0010041C0010042C0010084C008D
:1001800008088C0008080C0108100C0204100C046C
:10019000042000080240001001800090000003705D
:1001A00000001C1C0000E013000000100000001004
:1001B0000000000000000010000000100000E0132C
:1001C00000001C1C00000370008000900040101014
:1001D000012010100210F41F041014000408140071
:1001E000080804000808040008041402100414039A
:1001F0001004F41F10041413100414121008041037
:1002000008080410080814100810141004FFF71F41
:1002100004201010024010100180009000000370B4
:1002200000001C1C0000E013000000100000001083
:100230000000000000000010000000100000E013AB
:1002400000001C1C00000370008000900040101093
:100250000120101002FFF71F0410141004081410DE
:1002600008080410080804100804141110041413DA
:100270001004F41F100414031004140110080400E7
:100280000808040008081400081014000410F41FE3
:100290000420101002401010018000900000037034
:1002A00000001C1C0000E013000000100000001003
:1002B0000000000000000010000000100000E0132B
:1002C00000001C1C00000370008000900040101013
:1002D000012010100210F41F041014000408140070
:1002E0000808140008081400080414021004140379
:1002F0001004F41F10041413100414121008141026
:1003000008081410080814100810141004FFF71F30
:1003100004201010024010100180009000000370B3
:1003200000001C1C0000E013000000100000001082
:100330000000000000000010000000100000E013AA
:1003400000001C1C00000370008000900040101092
:100350000120101002FFF71F0410141004081410DD
:1003600008081410080814100804141110041413B9
:100370001004F41F100414031004140110081400D6
:100380000808140008081400081014000410F41FD2
:100390000420101002401010018000900000037033
:1003A00000001C1C0000E013000000100000001002
:1003B0000000000000000010000000100000E0132A
:1003C00000001C1C00000370008000900040001022
:1003D00001201010021010100410F01F040810006B
:1003E000080810000808100008041000100410008D
:1003F0001004100010041000100410001008100069
:10040000080812000808160008FFFF1F0410161045
:1004100004201210024000100180009000000370C0
:1004200000001C1C0000E013000000100000001081
:100430000000000000000010000000100000E013A9
:1004400000001C1C000003700080009000400010A1
:10045000012012100210131004FFFF1F04081300E4
:10046000080812000808100008041000100410000A
:1004700010041000100410001004100010081000E8
:1004800008081000080810000810F01F04101010D1
:100490000420101002400010018000900000037042
:1004A00000001C1C0000E013000000100000001001
:1004B0000000000000000010000000100000E01329
:1004C00000001C1C00000370008000900040001021
:1004D0000120080802100A0404100A0204080A0194
:1004E00008088A0008084A0008042A0010041A00B4
:1004F00010FF0B0010041A0010042A0010084A0014
:1005000008088A0408080A0708100A0704108A075E
:1005100004200808024000100180009000000370D1
:1005200000001C1C0000E013000000100000001080
:100530000000000000000010000000100000E013A8
:1005400000001C1C000003700080009000400010A0
:10055000012000080210880404108A0304088A039A
:1005600008088A0708084A0008042A0010041A002C
:1005700010FF0B0010041A0010042A0010084A0093
:1005800008088A0008080A0108100A020410080472
:100590000420000802400010018000900000037059
:1005A00000001C1C0000E013000000100000001000
:1005B000000000000000000000008000000080003B
:1005C000000080000000800000008000000080002B
:1005D000000080000000800000C0FFFF0180FFFFDE
:1005E0000000FF7F0000FE3F0000FC1F0000F80F2E
:1005F0000000F0070000E0030000C00100008000E0
:1006000000C0FFFF0100C0000000A000000090003B
:1006100000008800000084000000820000FF8100CC
:1006200000008000000080000000800000008000CA
:1006300000000000000000000000800000008000BA
:1006400000008000000080000000800000008000AA
:1006500000008000000080000000800000E0FFFF3C
:10066000030004FF01000EFF01000EFE00001FFE4C
:1006700000001F7C00803F7C00803F3800C07F3836
:1006800000C07F1000E0FFFF030084000000820034
:100690000000810000808000007F8000000080005A
:1006A000000080000000800000008000000080004A
:1006B000000000000000000000008000000080003A
:1006C000000080000000800000FF81000000820028
:1006D0000000840000008800000090000000A000DE
:1006E0000000C00000C0FFFF0180FFFF0000FF7F8F
:1006F0000000FE3F0000FC1F0000F80F0000F007A4
:100700000000E0030000C0010000800000C0FFFF07
:1007100001008000000080000000800000008000D8
:1007200000008000000080000000800000008000C9
:100730000000000000FF01020304050607FFFFFFA1
:10074000FFFFFFFFFFFFFFFFFFFFFFFFFFFFFFFFB9
:10075000FFFFFFFFFF101112131415161718191AB7
:100760001B1C1D1E1F202122232425262728292A61
:100770002B2C2D2E2F303132333435363738393A51
:100780003B3C3D3E3F404142434445464748494A41
:100790004B4C4D4E4F505152535455565758595A31
:1007A0005B5C5D5E5F606162636465666768696A21
:1007B0006B6C6D6EFFFFFFFFFFFFFFFFFFFFFFFF93
:1007C000FFFFFFFFFFFFFFFFFFFFFFFFFFFFFFFF39
:1007D000FFFFFFFFFFFFFFFFFFFFFFFFFFFFFFFF29
:1007E000FFFFFFFFFFFFFFFFFFFF05FFFFFFFFFF13
:1007F000FFFFFFFFFFFFFFFFFF08FFFFFFFFFFFF00
:10080000FFFFFFFFFFFFFFFFFFFFFF09FFFFFFFFEE
:10081000FF0AFFFF0BFFFFFFFF0CFFFFFFFFFFFFC4
:10082000FFFFFFFFFFFFFFFFFFFFFF0DFFFFFFFFCA
:10083000FF0EFFFFFF0000000000000000000000AE
:1008400000000000000000000000000000000000A8
:10085000000000000000000000820086008E009E64
:1008600000BE00FF03BE009E008E008600820000D6
:100870000000000000000000008200C200E200F260
:1008800000FA00FF03FA00F200E200C2008200005A
:10089000000000000000000000860186018601863D
:1008A0000186018703860186018601860186010093
:1008B0000000000000000078008400020102010234
:1008C000010201020184004800480048008601003E
:1008D0000000000000000000000000000000008296
:1008E0000082008200820082008200C600BA0002FC
:1008F000000200020000000000FE030200020002ED
:1009000000020003000200020002000200FE0300D9
:10091000000000000000000000FF010001000100D5
:1009200001000100030001000100010001FF0100BE
:100930000000000000440000000000100038002803
:1009400000480044008400FE000201020101020090
:100950000000000000440000000000780084000255
:10096000010201020102010201020184007800007B
:1009700000000000004400000000008200820082AD
:10098000008200820082008200820044003C00005D
:10099000000000000000001C0022002200220012C3
:1009A0000012001200220042008200820072000049
:1009B0000000000000000000002400000000003CD7
:1009C00000400040007800440042006200DC00006B
:1009D00000000000000000000024000000000038BB
:1009E000004400820082008200820044003800003F
:1009F0000000000000000000002400000000004291
:100A0000004200420042004200420062005C0000DE
:100A100000000000000000000000000000000000D6
:100A200000000000000000000000000000000000C6
:100A300000000000000000000000000000000000B6
:100A400000000000000000000000000000000000A6
:100A50000000000000000010001000100010001046
:100A60000010001000100010000000100010000026
:100A70000000000000000044004400440044000066
:100A80000000000000000000000000000000000066
:100A9000000000000000009000900048004800FEA8
:100AA0000148002400FF012400240012001200006D
:100AB00000000000002000F8002C00240024002882
:100AC0000030006000E000A000A000A4007C002036
:100AD000000000000000000E021101910051004EC4
:100AE0000020001000C801280224022202C10100D7
:100AF000000000000000003800440044006400389A
:100B0000000C001202310221014101C200FC01006F
:100B10000000000000000010001000100010000095
:100B200000000000000000000000000000000000C5
:100B3000000000000000008001600030001000088C
:100B400000080008000800080008001000300060DD
:100B50000080010000000006001800300020004066
:100B600000400040004000400040002000300018DD
:100B70000006000000000010001000D6006C0028E5
:100B80000038002800000000000000000000000005
:100B90000000000000000000000000000000001045
:100BA00000100010001000FF0110001000100000E5
:100BB0000000000000000000000000000000000035
:100BC00000000000000000000000001800180010E5
:100BD00000100008000000000000000000000000FD
:100BE0000000000000FC0000000000000000000009
:100BF00000000000000000000000000000000000F5
:100C000000000000000000000000001800180000B4
:100C10000000000000000000018000800040004053
:100C2000002000200010001000080008000400044C
:100C300000020000000000380044004400820082EE
:100C400000820082008200820044004400380000DC
:100C50000000000000000010001E00100010001036
:100C600000100010001000100010001000FE000026
:100C7000000000000000003E004200400040004034
:100C8000002000200010000800040002007E000088
:100C9000000000000000003C004000400040004018
:100CA000003800400040004000400040003C000090
:100CB0000000000000000020003000280028002470
:100CC00000220022002100FF002000200020000060
:100CD000000000000000007C000400040004001C70
:100CE000002000400040004000400020001C0000A8
:100CF0000000000000000078000400040002003A38
:100D00000046008200820082008200440038000019
:100D100000000000000000FE0080004000200020D5
:100D20000010001000080008000800040004000083
:100D3000000000000000007C00820082008200644D
:100D4000001800640042008200820042003C000063
:100D50000000000000000038004400820082008291
:100D6000008200C400B8008000400040003C000049
:100D7000000000000000000000000000000000185B
:100D8000001800000000000000000018001800001B
:100D9000000000000000000000000000000000183B
:100DA00000180000000000000000001800180010EB
:100DB000001000080000000000000000000000001B
:100DC00001C00030000C000C003000C00000010029
:100DD0000000000000000000000000000000000013
:100DE000000000FE0100000000FE01000000000005
:100DF00000000000000000000000000000000002F1
:100E0000000C003000C000C00030000C00020000E8
:100E1000000000000000007E00C200820080004050
:100E20000020001000080008000000080008000072
:100E30000000000000000078008400E200930089B8
:100E4000008900C900C900E900B20346007C000027
:100E50000000000000000000000000100038002822
:100E600000480044008400FE00020102010102006B
:100E700000000000000000000000007E00820082F0
:100E80000042003E0042008200820082007E00009C
:100E90000000000000000000000000F800860002D2
:100EA00000010001000100010002000600F800003E
:100EB00000000000000000000000003E0042008230
:100EC000008200820082008200820042003E000018
:100ED0000000000000000000000000FE0002000210
:100EE00000020002007E00020002000200FE00007C
:100EF0000000000000000000000000FE00020002F0
:100F000000020002007E0002000200020002000057
:100F10000000000000000000000000F0010C0104CF
:100F20000002000200C201020104010C01F00100F4
:100F3000000000000000000000000082008200822B
:100F40000082008200FE0082008200820082000097
:100F50000000000000000000000000FE0010001073
:100F600000100010001000100010001000FE000023
:100F70000000000000000000000000780040004079
:100F8000004000400040004000400040003C0000A5
:100F9000000000000000000000000082004200226B
:100FA0000012000E000A001200620082000201001E
:100FB000000000000000000000000002000200022B
:100FC00000020002000200020002000200FE000017
:100FD0000000000000000000000000C300C300C7C4
:100FE00000A500A500AD00990099008100810000D6
:100FF0000000000000000000000000820086008A5F
:10100000008A0092009200A200A200C200820000AA
:1010100000000000000000000000007800840002D2
:1010200001020102010201020102018400780000B4
:1010300000000000000000000000007E008200822E
:1010400000820042003E0002000200020002000096
:101050000000000000000000000000780084000292
:101060000102010201020102010201840078004034
:1010700000800100000000000000003E004200422D
:1010800000420022001E00120022004200820000E6
:101090000000000000000000000000FC00820002D0
:1010A0000006001800600080008000C2003E0000C2
:1010B0000000000000000000000000FF0110001010
:1010C00000100010001000100010001000100000B0
:1010D000000000000000000000000082008200828A
:1010E000008200820082008200820044003C0000F6
:1010F00000000000000000000000000102020102E8
:1011000001840084004400480048003000300000A2
:1011100000000000000000000000000102010212B7
:1011200001320132012A014A01CC00CC00840000C6
:101130000000000000000000000000010202018425
:101140000048003000300048008400020101020025
:101150000000000000000000000000010202018405
:1011600000440028001000100010001000100000C3
:101170000000000000000000000000FE01000180EF
:1011800000400020001000080004000200FE0100E2
:1011900000000000000000F8000800080008000837
:1011A00000080008000800080008000800080008FF
:1011B00000F800000000000200040004000800081D
:1011C000001000100020002000400040008000803F
:1011D000000001000000003E002000200020002050
:1011E00000200020002000200020002000200020FF
:1011F000003E000000000020002000300050005899
:101200000048008800840084000201000000000003
:1012100000000000000000000000000000000000CE
:10122000000000000000000000000000000000FFBF
:10123000030000000010002000000000000000007B
:10124000000000000000000000000000000000009E
:101250000000000000000000000000000000003C52
:1012600000400040007800440042006200DC0000C2
:101270000000000000000002000200020002007AEC
:10128000004600820082008200820046003A000090
:10129000000000000000000000000000000000F856
:1012A00000040002000200020002000400F8000036
:1012B000000000000000008000800080008000B876
:1012C00000C4008200820082008200C400BC0000D2
:1012D0000000000000000000000000000000007896
:1012E0000084008200FE00020002000400F80000FA
:1012F00000000000000000E001180008000800FEE7
:1013000001080008000800080008000800080000A4
:10131000000000000000000000000000000000B815
:1013200000C4008200820082008200C400BC0080F1
:101330000040003C000000020002000200020072B7
:10134000008A008600820082008200820082000003
:101350000000000000000018001800000000001E3F
:10136000001000100010001000100010001000000D
:101370000000000000000030003000000000003CD1
:10138000002000200020002000200020002000205D
:101390000020001E00000002000200020002008285
:1013A00000620012000E000A0032004200820000BB
:1013B000000000000000003C002000200020002071
:1013C000002000200020002000200020002000003D
:1013D000000000000000000000000000000000CD40
:1013E000003301110111011101110111011101005D
:1013F000000000000000000000000000000000727B
:10140000008E00860082008200820082008200003E
:101410000000000000000000000000000000003894
:1014200000440082008200820082004400380000F4
:101430000000000000000000000000000000007A32
:10144000004600820082008200820046003A0002CC
:10145000000200020000000000000000000000B8D0
:1014600000C4008200820082008200C400BC0080B0
:10147000008000800000000000000000000000E488
:101480000094008C00040004000400040004000028
:101490000000000000000000000000000000007CD0
:1014A00000020002000C003000400042003E00003C
:1014B000000000000000000000000008000800FE1E
:1014C00000080008000800080008000800F00000FC
:1014D00000000000000000000000000000000042CA
:1014E000004200420042004200420062005C0000F4
:1014F00000000000000000000000000000000001EB
:1015000001820082004200440024002800180000EC
:1015100000000000000000000000000000000001CA
:10152000021102320132014A014A01CC008400005A
:1015300000000000000000000000000000000002A9
:10154000018400480030003000480084000201009F
:10155000000000000000000000000000000000018A
:10156000020201020184004C0048003000300010EB
:10157000000800070000000000000000000000FE5E
:1015800001800040002000100008000400FE01005F
:1015900000000000000000E000100010001000102B
:1015A00000100010000C00100010001000100010BF
:1015B00000E00000000000100010001000100010FB
:1015C000001000100010001000100010001000109B
:1015D000001000000000001C00200020002000205F
:1015E0000020002000C0002000200020002000205B
:1015F000001C0000000000000000000000000000CF
:101600000000000E023102C10100000000000000D5
:1016100000000000000011241FBECFEFD8E0DEBFA5
:10162000CDBF21E0A0E0B1E001C01D92AF3EB20706
:10163000E1F70E9469380C94C73B0C9400000F93AB
:101640001F93CF93DF93D82F162F042F80E00E9493
:101650009C3481E00E949C3482E00E949C348DE3A3
:101660000E945C37C0E08091A501C81731F08091DD
:10167000A601C81721F0802F03C08D2F01C0812F34
:101680000E945C37CF5FC33071F7DF91CF911F911C
:101690000F910895A3E0B0E0E0E5FBE00C94463B39
:1016A00089836A834B83CE0101967C0110E0F701A8
:1016B00001917F01002359F0812F0E949C348AE31D
:1016C0000E945C37802F0E945C370E94A0341F5F0D
:1016D000133069F72396E6E00C94623B88EB92E0C6
:1016E0000E948D3481EB92E00E94A9348091A30185
:1016F0008F5F8093A3010895809102018130C9F426
:1017000088E592E00E948D340E946B34809107013D
:101710000E949C348AE30E945C370E94A03460914E
:1017200008017091090180E090E026E54DEF0E94EC
:10173000EB340895A1E0B0E0E0EAFBE00C944A3B12
:1017400069830E945C3780EE90E00E948D3469814D
:10175000862F0E945C370E94A034ECE0F1E06381A8
:1017600074818581968124E042810E94EB34219628
:10177000E2E00C94663BA0E0B0E0E1ECFBE00C940E
:10178000443B80910501813039F4F0900C0100E078
:1017900010E0CCE0D1E05CC0833009F04DC0009196
:1017A0000F011091100120911101309112016091EF
:1017B0001601709117018091180190911901E09024
:1017C0000E01409115010E94A510813029F423E1FA
:1017D000C22E21E0D22E04C09CE0C92E91E0D92E69
:1017E000F601038114812581368160911D0170917C
:1017F0001E0180911F0190912001E28040911C0107
:101800000E94A510813031F0FCE0CF16F1E0DF0638
:1018100029F407C08AE1C82E81E0D82ECCE0D1E0BF
:1018200002C0C3E1D1E08E01095F1F4F0C151D05F9
:1018300039F4095F1F4F04C003E111E0CCE0D1E0AF
:101840008881F801F0808F1519F0F1808F11F980EF
:1018500088818F1101C089810E949C3480EE90E0C4
:101860000E948D348F2D0E949C340115110561F06A
:1018700080EE90E00E948D34F80180818F1102C0CB
:10188000F80181810E949C340E946B346B817C81C1
:101890008D819E8124E04A810E94EB34011511055F
:1018A00051F00E94A034F801638174818581968192
:1018B00024E0428112C0CE010E94462B813079F48F
:1018C0000E94A0346091D8017091D9018091DA0111
:1018D0009091DB0128E44091D7010E94EB34CDB711
:1018E000DEB7E8E00C94603BEF920F931F93CF9329
:1018F000DF9300914B0110914C0120914D013091EB
:101900004E0160915A0170915B0180915C01909150
:101910005D01E0904A01409159010E94A51081307B
:1019200019F4C7E5D1E002C0C8E4D1E00B811C8105
:101930002D813E816091690170916A0180916B01F6
:1019400090916C01EA80409168010E94A51081305D
:1019500011F4C6E6D1E088810E949C348DEE90E0BF
:101960000E948D3489810E949C340E946B346B816B
:101970007C818D819E8126E44A810E94EB34CE01D8
:101980000E94371F8C010F3F8FEF180749F00E940C
:10199000A034B80180E090E024E04EEF0E94EB34E8
:1019A0008B859C85AD85BE85892B8A2B8B2B61F021
:1019B0008AE391E00E94BB346B857C858D859E8592
:1019C00021E448EF0E94EB34DF91CF911F910F91FA
:1019D000EF900895EF920F931F93CF93DF93EC0155
:1019E0006091B0017091B1018091B2019091B30109
:1019F00027EFE22E02E310E020E030E04091B40156
:101A00000E94A51087FD10C0CE010E94BB346091DA
:101A1000B0017091B1018091B2019091B30121E4C4
:101A20004091B4010E94EB34DF91CF911F910F914F
:101A3000EF90089540E0FC01608181810E94F922CD
:101A4000E8E4F1E0638174818581968126E4428136
:101A50000E94EB340895A0E0B0E0E1E3FDE00C94D7
:101A6000433B80910601813051F4E0907601E5E03E
:101A7000DE2EF5E0FF2E85E000E010E046C182306A
:101A8000F1F4F0907501D0907B01C0907601E09068
:101A90007C01FD1006C0DE2C75E0E72EBB24B3945C
:101AA00063C0CE1409F42EC1FE1026C1CD1024C18E
:101AB000EF2C35E0D32E45E0C42EB12C55C0833039
:101AC00009F046C080E066E0282F30E090E0629F99
:101AD000F001639FF00D1124EA58FE4F492F50E0AA
:101AE000891769F0649FD001659FB00D1124AB5830
:101AF000BE4FC0817C91C71302C095E085E09F5F17
:101B0000933060F38F5F8330F8F296E0929FE001AC
:101B1000939FD00D1124CB58DE4F853040F0949F19
:101B20008001959F100D11240B581E4F02C000E03C
:101B300010E086E0829FF001839FF00D1124EB58A6
:101B4000FE4FE18055E0D52E65E0F62E83E0DFC044
:101B500089EE90E00E948D340E94A03480910601AD
:101B6000805D0E945C37EBC082E08F1598F0809119
:101B700076010E949C3485EE90E00E948D348F2D7A
:101B80000E949C348BE791E0C5E7D1E00097C1F457
:101B90008C01C2C00BE711E0C5E7D1E088810E944B
:101BA0009C3489EE90E00E948D348E2D0E949C34EE
:101BB0000115110509F4B0C0E3E0EF1560F002C0B3
:101BC0000BE711E089EE90E00E948D34FE1439F0AD
:101BD000F801818106C085EE90E00E948D34F80105
:101BE00080810E949C34F4E0FC1508F453C049E164
:101BF0006D2D8C2D0E94F41E8130C1F40E94A03402
:101C000082E08F1518F083EA91E002C087EA91E044
:101C10000E948D348FE30E945C370E946B3461E335
:101C20006D0D81E38C0D0E949A0BB12C8EE891E032
:101C30000E94BB346A817B8180E090E026E54DEF15
:101C40000E94EB340E94A0340115110589F58C81A6
:101C50009D818A3F910570F488E20E945C376C8117
:101C60007D8180E090E020E040E00E94EB3489E25A
:101C70000E945C3740E0688189810E94631981E09D
:101C80000E94B92384E891E00E94EA0CE1E0BE12D0
:101C900056C022C08EE891E00E94BB346A817B81ED
:101CA00080E090E026E54DEF0E94EB340E94A034E6
:101CB000F8016281738180E090E026E54DEF0E949B
:101CC000EB34F1E0BF123BC08CE891E00E94BB34E2
:101CD000CE010E941A0D0AC08CE891E00E94BB342C
:101CE000CE010E941A0D0115110549F10E94A03480
:101CF000C8010E941A0D23C085E0D82E95E0F92E68
:101D000025E0E22E85E00BE711E0C5E7D1E0CF2C1E
:101D1000F82EBB24B39442CF84E08C1508F067CF33
:101D20008EE891E00E94BB346A817B8180E090E084
:101D300026E54DEF0E94EB340E94A03488CFCDB74A
:101D4000DEB7E9E00C945F3BA0E0B0E0EAEAFEE039
:101D50000C94443B809102019091A501C091A70190
:101D6000D091A60180FF09C0192FFD2EDC2F02E0C3
:101D700097EAC92E91E0D92E08C01C2FC92FF12E49
:101D800001E083EAC82E81E0D82E8FE392E00E9422
:101D9000A434C6010E948D348091020182FF03C0E9
:101DA0008BE20E945C370E946B3445E463E482E47A
:101DB0000E941F0B6F2D8D2F0E941C24892B59F020
:101DC0000E94A03483E40E945C37802F0E945C371D
:101DD00085E40E945C3749E1612F8C2F0E94F41E3C
:101DE000813051F40E946B3465E482E40E949A0BC6
:101DF00084E08093290147C08FE991E00E94BB34C1
:101E00006091AC017091AD018091AE019091AF01F4
:101E100020E040E00E94EB346C2F812F0E941C24B4
:101E2000EC01892B81F18BE991E00E94BB342A817E
:101E30003B81EC81FD81C090AC01D090AD01E09080
:101E4000AE01F090AF0184E6C816D104E104F104BC
:101E500098F0C9018E1B9F0B63E070E00E94BE3AB0
:101E60008AEFC816D104E104F10418F4261B370BDD
:101E700003C09B012E0F3F1FB90180E090E026E5D3
:101E80004DEF0E94EB3481E991E00E94EA0CCDB75E
:101E9000DEB7E8E00C94603BFF920F931F93CF9363
:101EA000DF93809102019091A7016091A60180FFCC
:101EB00003C0892F02E003C0862F692F01E09091B3
:101EC00001019F3121F015E423E4F22E03C013E554
:101ED00094E4F92E0E941C24EC01892B59F00E94F5
:101EE000A0348F2D0E945C37802F0E945C37812F99
:101EF0000E945C378091020183FD49C08091AA0154
:101F00009091AB01892B81F088E891E00E94BB346D
:101F10006091AA017091AB01072E000C880B990B00
:101F200026E54DEF0E9473358BEA91E00E94BB34A9
:101F30006091B5017091B6018091B7019091B8019F
:101F400026E44091B9010E94EB348091A801909160
:101F5000A901892B71F086E391E00E94BB34609166
:101F6000A8017091A90180E090E024E04EEF0E946A
:101F7000EB34209761F08EE891E00E94BB346A81D7
:101F80007B8180E090E026E54DEF0E94EB34CDB7F9
:101F9000DEB7E5E00C94633B0E94A034809102011F
:101FA00080FF02C08EE401C080E50E945C378EEBAA
:101FB00091E00E948D3408950E94A0348091020126
:101FC00082FF03C089EB91E002C084EB91E00E94A4
:101FD0008D3408958091020184FF05C086EC91E064
:101FE0000E948D3403C08AE40E945C3782EC91E049
:101FF0000E948D340E94CC0F8091020184FD0E94CA
:10200000DC0F0E946B348091020186FF03C048E719
:1020100068E702C043E564E487E40E941F0B8091F7
:10202000020184FD0E944C0F8091020183FF04C0D5
:102030008EE391E00E94EA0C08958FEA91E00E94FD
:102040008D340E94CC0F0E94DC0F0E946B3445E45B
:1020500063E487E40E941F0B0E944C0F0895809157
:102060000101823249F48BE392E00E948D340E9498
:102070006B3443E461E408C085E392E00E948D3450
:102080000E946B3441E362E387E40E941F0B80915E
:10209000A8019091A901892B71F086E991E00E9435
:1020A000BB346091A8017091A90180E090E026E521
:1020B0004DEF0E94EB340895CF93DF9381E392E0DC
:1020C0000E948D340E946B3443E461E487E40E94F3
:1020D0001F0B81E891E00E94BB34C5E3D1E06D8124
:1020E0007E8180E090E026E54DEF0E94EB348EE8A3
:1020F00091E00E94BB346B817C8180E090E026E51A
:102100004DEF0E94EB34DF91CF910895CF92DF9293
:10211000EF92FF92CF93C1E02AE0C22ED12CE12CA6
:10212000F12C6A3071058105910540F0A7019601F7
:102130000E94D23ACA01B901CF5FF3CF8C2FCF9161
:10214000FF90EF90DF90CF9008954F925F926F9243
:102150007F928F929F92AF92BF92EF920F931F93B5
:10216000CF93DF931F92CDB7DEB74B015C012801FF
:10217000390149830E948610182FC301B2010E94C1
:102180008610498181149104A104B10451F14114D4
:1021900051046104710401F1410FE80EE41654F199
:1021A0004E112AC0F12FE82FE11754F4AAE0B0E055
:1021B000A30192010E942F3B2B013C01EF5FF4CF62
:1021C000FE1754F4AAE0B0E0A50194010E942F3B51
:1021D0004B015C01FF5FF4CF481459046A047B048F
:1021E00048F081E084149504A604B70408F080E068
:1021F000819503C081E001C08FEF0F90DF91CF91F7
:102200001F910F91EF90BF90AF909F908F907F9014
:102210006F905F904F900895CF92DF92EF92FF9270
:10222000CF93DF93C42FD22F2AE0C22ED12CE12CE2
:10223000F12CCD1791F0CD1744F4A70196010E941F
:10224000D23ACA01B901CF5FF4CFAAE0B0E09B0156
:10225000AC010E942F3BC150ECCFDF91CF91FF909A
:10226000EF90DF90CF900895CF93CAB18AB1857F68
:102270008AB90E94593899B191FF02C082E001C029
:1022800080E093FD8160CAB990913201913031F4C0
:1022900080933101109232011092340190913401F7
:1022A0002FEF290F293F18F49F5F909334019091ED
:1022B000310180933101981771F1282F292720FFD0
:1022C0002695213029F5990F2DE830E002C035958B
:1022D00027959A95E2F72370281711F084E001C042
:1022E00083E0909133019F5F90933301909132018D
:1022F000891729F091E090933301909334018093F2
:10230000320190913301943030F01092330104C0C7
:1023100081E08093320180E0CF910895A1E0B0E0A8
:10232000E4E9F1E10C94403B8C0181E080933201BF
:102330001092330180932F0162FF08C080919901B0
:1023400080FD02C060E002C000E010E0862F8370D4
:10235000C82E29F081E069830E94CA37698182E032
:10236000B82EE12C92E3D92E812C99249394F12C50
:102370006270A62E0115110539F00630110518F00E
:102380000550110901C0912C4F991BC08EE190E0BE
:102390000E943F1420E0992011F04F9B08C0822E2C
:1023A000912C2B3108F45CC052E0F52E5BC02F5FFE
:1023B0002B31A8F78AE090E029830E943F142981FD
:1023C000EACF0E943411882351F1EE2019F08F15C5
:1023D00011F054C0F82EE394809134016E2D0E94C8
:1023E000903A9CE09D0DD92ED80E9EE1899F9001D8
:1023F000112444E0369527954A95E1F7293208F0F3
:1024000028E2269526952695233010F433E0B32E46
:10241000EB1005C087E0821B80932F012FC0EE20B8
:1024200021F0809134018D1548F582E090E00E9402
:102430003F14AA20B9F0839488EC881213C091E06D
:10244000991207C080E00E94CA37812C22E0922EA8
:1024500009C081E00E94CA37812C9924939402C05C
:10246000FF24F39480919A0180FF06C080919A0125
:102470008E7F80939A0102C091107CCFCC2019F0FE
:1024800080E00E94CA37F0922E018F2D2196ECE059
:102490000C945C3B65E088EB9BE00E948E110895F4
:1024A0000F931F93CF93DF93D82F882321F000E75A
:1024B00012E0C3E003C007E712E0C0E00E940E1A7A
:1024C0008C1769F00E940337C8010E948D340E9466
:1024D0006B3481E692E00E948D3482E001C081E09D
:1024E0008230A1F40E940E1A8C1306C088EC90E092
:1024F0000E943F1481E00AC060E084E690E00E9400
:102500008E11D13079F7882369F380E0DF91CF9184
:102510001F910F910895681310C080EE9FEF909364
:102520002801809327018AE20E945C3780EE97E0C1
:10253000909328018093270108950E94A034089564
:10254000A0E0B0E0E6EAF2E10C943D3B862E642E7A
:10255000552E59010FEF080FF0902501DD24DA9474
:10256000DF0C8AE30E945C37D2E010E0C0E08EEF1F
:10257000782E7F0C9D2E9F18900E81E0D81202C0FD
:10258000DF5F1C2FE62CF52CE10EF11CE10EF11C97
:10259000C12CCD1498F562E06C0D81E00E94673685
:1025A000E1E0DE1629F06C2F8C2D810F0E948B123A
:1025B000D230E0F0F1E08F1206C0F7018081918106
:1025C0000E948D340AC0C7010E94A33BBC0180E079
:1025D00090E020E040E00E94EB34A114B10419F037
:1025E000C5010E948D3480E00E949236F2E0EF0E29
:1025F000F11CC3940C1568F6CD2CCBCF81E0D8121A
:102600000DC060912501809124010E946736C0179A
:1026100010F08CE301C08EE30E945C3760E080E044
:1026200090E00E948E11813089F1833099F08430DE
:1026300029F5C11105C00D1528F1192D902F08C0DD
:102640009FEF9C0F91131FC01123E9F01EEF1C0F89
:10265000D2E01AC0C01304C0CD1560F0D2E00BC0A8
:10266000CF5F872D810FC8130BC0C01748F41F5FC1
:10267000D2E083CFD1E010E0C0E07FCF823031F0F4
:10268000D1E07BCF902FD1E0C92F77CF0E940337C5
:1026900084EF91E00E943F148C2FCDB7DEB7EFE0BE
:1026A0000C94593BA9E0B0E0E8E5F3E10C94493B18
:1026B000182F86E491E09A83898381E08F8383E4F5
:1026C00091E09C838B8382E088878CE492E09E83F8
:1026D0008D8319860E940337123019F48FE892E037
:1026E00002C08AE892E00E948D3420E030E0AE0122
:1026F0004F5F5F4F61E083E00E94A012FE01E80F90
:10270000F11D6781662319F0812F0E94CE1429964E
:10271000E3E00C94653BA1E2B0E0E1E9F3E10C9465
:102720004A3B87E291E09A83898386E08F8B8BE234
:1027300091E09C838B8389E0888F8DEF91E09E836D
:102740008D8383E1898F85E192E098878F838AE08A
:102750008A8F89E092E09A8789878DE08B8F8FE955
:1027600092E09C878B8781E08C8F84E992E09E8742
:102770008D8782E08D8F8FE892E0988B8F8783E042
:102780008E8F8AE892E09A8B898B84E08F8F8EE718
:1027900092E09C8B8B8B85E088A38CE492E09E8BEF
:1027A0008D8B19A20E94033784EA92E00E948D3437
:1027B00020E030E0AE014F5F5F4F61E08BE00E94B0
:1027C000A012FE01E80FF11D8789A196E2E00C94AA
:1027D000663BA1E0B0E0EFEEF3E10C944A3B0E94CF
:1027E0008B1390E0FC013197E331F105B0F5EC5C1F
:1027F000FF4F0C94133B0E949F1730C00E94891515
:102800002DC082E001C081E00E94521326C00E94C8
:10281000161523C00E94033787E291E00E948D3491
:1028200024E231E04BE550E062E088E00E94A01233
:1028300090E0880F991F855A9F4F0E94A33B0E94EA
:10284000942C0BC00E945D2D08C00E94AE2D05C0C7
:102850000E94EE3302C00E94A12E81E089830E9473
:1028600003378981811103C081E592E002C08BEAC0
:1028700092E00E948D342196E2E00C94663B309108
:102880009B01A0E0B0E0F3E0880F991FAA1FBB1FD7
:10289000FA95D1F73630D1F4492F5A2F6B2F77277D
:1028A0004F5F5F4F6F4F7F4FE4E0440F551F661F30
:1028B000771FEA95D1F7481759076A077B0728F46D
:1028C000841B950BA60BB70B01C030E01092B10032
:1028D0001092B20022E02093B0002093700023B742
:1028E000217F232B23BF0FB607FC03C0789430E071
:1028F00001C031E047E00097A105B105F9F0A895C6
:102900008F3F9105A105B10509F010F4282F01C0F2
:102910002FEF821B9109A109B10921502093B30027
:102920004093B1002091B100222329F323B7216005
:1029300023BF889523B72E7F23BFF4CF311101C069
:10294000F89408951F920F920FB60F9211241092CF
:10295000B1000F900FBE0F901F901895ECECF1E0B6
:1029600088EC90E0918380838CED90E09383828368
:1029700084E190E0958384838BE2868317821086BE
:1029800011860895ECECF1E080E09AE09E0F219131
:10299000820F9E13FCCF09F481E00895EF92FF921D
:1029A0000F931F93CF93DF93F82E623019F003EE4D
:1029B00012E002C008ED12E00E94C2148093D6011A
:1029C000CCECD1E0EC2E8BE0E80E82E0F81205C0F2
:1029D0006881C8010E94A93B04C0C8010E949B3BBA
:1029E000888321960F5F1F4FEC12EFCF82E0F8161D
:1029F000C1F00E94C2149091D601992391F09817CA
:102A000081F00E94033783E492E00E948D3481E5D7
:102A100092E00E94A93480ED97E00E943F140E944A
:102A2000AE14CDB7DEB7E6E00C94623B81E0809354
:102A300021010E94033780E791E00E94A434609155
:102A4000CC017091CD0180E090E024E04FEF0E9436
:102A5000EB348CE691E00E94BB346091CE01709122
:102A6000CF0180E090E024E04FEF0E94EB3486E558
:102A700091E00E94BB346091D20170E080E090E070
:102A800026E444EF0E94EB3483E591E00E94BB34DE
:102A90006091D0017091D10180E090E024E04EEF90
:102AA0000E94EB348CE791E00E94BB3460919F015F
:102AB0007091A00180E090E026E54DEF0E94EB349C
:102AC0008FE491E00E94BB346091A1017091A2015A
:102AD00080E090E026E54DEF0E94EB348091990173
:102AE00082FF05C00E94A0348AE20E945C3789E41C
:102AF00091E00E94BB346091D401062E000C770B4C
:102B0000880B990B26E54DEF0E9473350E944A12FF
:102B10000895A5E0B0E0EFE8F5E10C943A3B81E0E0
:102B20000E945012811103C07AE0572E02C062E069
:102B3000562E812C912C1B82612C712C1A82C12C57
:102B4000D12C212CA12CB12C312CE12CF12C00E02A
:102B500010E01D821C824424439486E0851508F40D
:102B60005FC131E039830E94033781E40E945C3702
:102B700080E3850D0E945C370E94A03484E05816E3
:102B800009F450C0851568F092E0591699F0E3E019
:102B90005E1204C180E00E94501280E034E6398366
:102BA000FEC0F5E05F1609F466C026E0521609F48F
:102BB0009EC0F4C083E591E00E94A43489E591E0D1
:102BC0000E948D3440E060E081E00E94631980E063
:102BD0000E94F61B9D838C838639910518F4C80EDC
:102BE000D91E239440E060E082E00E94631980E0F7
:102BF0000E94F61B8C018639910518F4C80ED91E67
:102C0000239440E061E082E00E94631980E00E942A
:102C1000F61B7C018639910508F0C0C0C80ED91E8C
:102C20002394BCC080E791E00E948D3418B847B867
:102C300045B844B880E00E9443199D838C8382E0AC
:102C400087B955B854B881E00E9443198C018C8132
:102C50009D81800F911F680E791E57B890E195B93C
:102C600094B982E00E9443197C01680E791E3A8172
:102C70003D5F3A8393C08CE691E00E948D3415B895
:102C800048B847B844B80091A1011091A20180E072
:102C90000E944319F801E81BF90BFD83EC83F2E075
:102CA000F8B9F7B924E024B90091A1011091A2016B
:102CB00081E00E944319081B190B8C819D81800FB4
:102CC000911F880E991E34E038B937B980E184B974
:102CD000E090A101F090A20182E00E944319E81A5D
:102CE000F90A8E0C9F1C3B813D5F3B8357C086E5F4
:102CF00091E00E94A43489E591E00E948D3440E087
:102D000060E081E00E94F92280914F019091500192
:102D1000A0915101B09152019D838C8320914A0171
:102D2000243F41F485369105A105B10518F4A80E9C
:102D3000B91E339441E060E082E00E94F922809164
:102D40005E0190915F01A0916001B09161018C01E1
:102D500020915901243F41F485369105A105B10523
:102D600018F4A80EB91E339442E061E082E00E949C
:102D7000F92280916D0190916E01A0916F01B09147
:102D800070017C0120916801243F41F48536910552
:102D9000A105B10518F4A80EB91E339481E017B847
:102DA00018B814B815B8882319F10E946B34EC8157
:102DB000FD81CF01A0E0B0E020E040E0BC01CD010A
:102DC0000E94EB340E94A034C801A0E0B0E020E0F3
:102DD00040E0BC01CD010E94EB340E94A034C70149
:102DE000A0E0B0E020E040E0BC01CD010E94EB3467
:102DF0003981343669F060E088EE93E00E948E11EC
:102E0000882331F0823011F454E6552E34E63983AC
:102E100039813F5F3983363008F4A5CE53949DCE77
:102E20009FE039120AC0C5016FE070E00E94AA3A23
:102E30006093D201BB24B39401C0B12CEFE02E12F9
:102E40000AC0C6016FE070E00E94AA3A7093D101F7
:102E50006093D001B3943A813F3009F069C03B815F
:102E60003F3009F05EC0E5E0F0E0C301BF010E9421
:102E7000AA3A9B01C401BF010E94AA3A8B0180912A
:102E8000A1019091A2016C01CC0CDD1CC80ED91ED1
:102E9000C21AD30AC61AD70AE12CF12CD90120EAAA
:102EA00039E041E050E00E942F3BA70196010E94CB
:102EB000D23ACA01B9016B5F7F4F8F4F9F4F2AE013
:102EC00030E040E050E00E94D23A2A3F310541050F
:102ED000510528F43093CD012093CC01B394D8014F
:102EE00020EA39E041E050E00E942F3BA701960123
:102EF0000E94D23ACA01B9016B5F7F4F8F4F9F4F3B
:102F00002AE030E040E050E00E94D23A283181E0EF
:102F100038074105510528F43093CF012093CE01A5
:102F2000B3940E94161581E094E0B91203C003C067
:102F30000E94161580E02596E2E10C94563BA6E02F
:102F4000B0E0E5EAF7E10C943A3B81E00E945012D0
:102F5000811103C08AE08E8302C091E09E83C12C60
:102F6000D12CE12CF12C00E010E032E0832E48E07F
:102F7000942E54EF452E56E0552E612C712C8E81E7
:102F8000873008F01BC181E08D8390E2392E24E167
:102F9000222E0E94033784E50E945C378E81805D7B
:102FA0000E945C370E94A0349E81933009F480C057
:102FB00008F04CC0913009F465C0923009F0BCC0F3
:102FC00087E691E00E94A43489E591E00E948D3467
:102FD0002091A1013091A201A0E7B3E00E94193B2A
:102FE000A30192010E94F43A91E095B985E084B979
:102FF00082E029833A834B835C830E9453192981A1
:103000003A814B815C816C01C21AD30A91E194B977
:1030100081E029833A834B835C830E945319298181
:103020003A814B815C817C01E21AF30A84E085B924
:1030300024B880E029833A834B835C830E94531930
:1030400029813A818C01021B130B76C08E81853059
:1030500009F45EC008F455C0863009F06DC084E7FD
:1030600091E00E948D3484B885B880E00E945319A5
:103070008C0194B895B881E00E9453197C0134B852
:1030800035B856C08EE00E94E3188EE00E94E31827
:103090005C018CE791E00E948D340E946B34B50195
:1030A00080E090E026E54DEF0E94EB3480E045C0E3
:1030B00082E691E00E94A43489E591E00E948D347B
:1030C0000091A1011091A2011695079585B89AE08B
:1030D00094B982E00E9453196C01C01AD10A82E2AD
:1030E00084B981E00E9453197C01E01AF10A95B875
:1030F00098E294B980E00E945319801B910B8C01D7
:103100001BC080E00E94501280E094E69D8315C0B1
:1031100088E791E00E948D3415B884B880E00E9461
:1031200053198C0194B881E00E9453197C0134B882
:1031300082E00E9453196C0181E014B815B888230D
:1031400009F10E946B3420E040E0B801012E000C30
:10315000880B990B0E9473350E94A03420E040E058
:10316000B7010F2C000C880B990B0E9473350E943D
:10317000A03420E040E0B6010D2C000C880B990B28
:103180000E9473358D81843679F060E088EE93E09B
:103190000E948E11882341F094E6823021F49E83B0
:1031A00084E68D8301C09D838D818F5F8D83863002
:1031B00008F4EFCE9E819F5F9E83E1CE81E026964C
:1031C000E2E10C94563BCF93DF93D82FD064D09399
:1031D0007C00CD2FC07C80919E01C81769F00E94B1
:1031E0005D3880917A00806480937A0080917A00C3
:1031F00086FDFCCFC0939E0120E030E0A90190E065
:10320000E0919C019E1708F580917A00806480937C
:103210007A0080917A0086FDFCCF609178007091F1
:103220007900260F371F411D511D943061F421157F
:1032300084E0380740F4C03C31F080919D0181303A
:1032400011F4D06CC4CF9F5FDBCFC03C29F4A091B8
:103250009F01B091A00104C0A091A101B091A20171
:103260000E942F3B2AE096958795779567952A953A
:10327000D1F72E2F30E040E050E00E94D23AC90151
:10328000DF91CF910895A1E0B0E0E9E4F9E10C9479
:103290004A3B89830E94543889810E94E318219611
:1032A000E2E00C94663BA1E0B0E0E9E5F9E10C94C2
:1032B0004A3B89830E94523889810E94E3182196F3
:1032C000E2E00C94663BA0E0B0E0E9E6F9E10C94A2
:1032D000443BE62E042FCAEBD1E0888369834A83FE
:1032E000C82ED12CC601875F9F4F0E949B3B8E83C7
:1032F000F12CC701875F9F4F0E949B3B8F8310E09B
:10330000C801875F9F4F0E949B3B8887C6018A5FE9
:103310009F4F0E949B3B8987C7018A5F9F4F0E94F6
:103320009B3B8A87C8018A5F9F4F0E949B3B8B878C
:10333000C6018D5F9F4F0E949B3B8C87C7018D5FAD
:103340009F4F0E949B3B8D87C8018D5F9F4F0E94BE
:103350009B3B8E87C601805090400E949B3B8F878D
:10336000C701805090400E949B3B888BC8018050D1
:1033700090400E949B3B898BCDB7DEB7E8E00C9470
:10338000603BEAEBF1E04581648183810E9463192F
:103390000895EAEBF1E080818383818184838281D7
:1033A0008583089523E030E0A901481B5109CA0133
:1033B000861B0895CF93DF9340E00E94631917B8EE
:1033C0008091C00185B99091C101892B84B9809108
:1033D000C9010E944319EC018091CA010E94E318BF
:1033E000AC012091A1013091A20136952795B90138
:1033F0006E5171096C177D0760F4225E3F4FC21752
:10340000D30738F46417750720F481E04217530797
:1034100008F080E014B8DF91CF910895CF9361E078
:1034200080E00E94DA19C82F62E080E00E94DA1979
:10343000C80F62E081E00E94DA198C0FCF910895E5
:10344000A7E0B0E0E6E2FAE10C94403B17B818B808
:1034500015B88FE384B980E00E94E3189A838983CA
:1034600081E00E94E3189C838B8382E00E94E31832
:103470009E838D83D12C02E028E211E0AA24A3943C
:10348000B12C0F5F033009F400E0802E912C8D2DBC
:1034900090E0002E02C0959587950A94E2F780FD92
:1034A0005DC0802F2F830E94E3187C01F401EE0F92
:1034B000FF1F81E090E08C0F9D1FE80FF91F8081B6
:1034C00091812F81E816F90660F4F182E082822F63
:1034D00090E0811B910944976CF42B3E58F42C5ECC
:1034E00009C09AE0E916F10418F4283209F420E53D
:1034F0001F5F01C011E083E0E816F10440F4C5014C
:10350000082C01C0880F0A94EAF7D82A0FC090E26D
:10351000E91693E0F90650F4C7B0C4018D5F9F4FE0
:103520002F830E949B3B8C2987B92F8187E0D81677
:10353000B9F0211760F481E08093010180930201CA
:1035400000930701F0920901E092080109C0A895D3
:1035500082E390E02F830E943F142F81111191CFBD
:1035600014B817B82796ECE00C945C3BCF93C82FA7
:10357000C09595B160FF02C0982B01C09C2395B9FE
:1035800094B1892B84B963FF03C00E94583802C0EC
:103590000E94533884B18C2384B985B18C2385B9BA
:1035A000CF910895A0E0B0E0E8EDFAE10C94453B3E
:1035B000613039F0623071F06330A9F080E090E062
:1035C0004FC0CBE6D0E0E7E0F0E002E310E048EEE9
:1035D00053E011C0CDE7D0E0ECE2F0E009E110E00B
:1035E0004CE251E008C0CBE1D0E0EEE1F0E009E1CF
:1035F00010E048EC50E08417950778F1841B950B98
:10360000B8010E94AA3AD02ED81ACB019927E81700
:10361000F90710F0262F01C02E2FC20FD11DC20FA7
:10362000D11DCE010E94A33B7C01CE0102960E94D7
:10363000A33B9C01E81AF90ADE9CA001DF9C500D17
:103640001124C80196958795840F951FB8010E9493
:10365000AA3ACB01820F931F03C0D02E20E0DDCF0A
:10366000CDB7DEB7E7E00C94613B0F931F93CF9388
:10367000DF9390910101913009F492C0062F182F29
:10368000A8950E94631915B88091C10184B98091F1
:10369000C60187B988B960E18091C2010E94B61A5B
:1036A0008091CA010E944319EC01813D934050F082
:1036B00061E18091C2010E94B61A8091CA010E9404
:1036C0004319EC01C031D10528F480910301811127
:1036D00027C00CC08091030181115DC0CE010E9402
:1036E0002A28C13D83E0D807C8F5EFCF8091C101FA
:1036F00084B915B88091C60187B988B90E94543839
:103700009091C2018091C101892B84B9802F0E94C0
:1037100043198F359D4020F0BE0182E00E94602653
:1037200080910301811122C08091C70187B918B827
:103730009091C2018091C001892B84B985B9812FF4
:103740000E9443198034964088F40E948229811196
:103750000DC0BE0181E00E94602608C08091030177
:10376000811102C00E94232A0E942F24809101010E
:10377000882311F08A3019F40E94B51C07C08F31DC
:1037800029F48091020184FD0E942A2517B818B8F7
:1037900014B815B805C0C13D83E0D80728F795CF08
:1037A000DF91CF911F910F9108958091040188239B
:1037B000E1F09091030190FD18C091FD04C090913B
:1037C00001019E3190F48093010180913501809335
:1037D000A501809136018093A601809137018093E5
:1037E000A70180910B0180930A010895A4E0B0E045
:1037F000ECEFFBE10C943B3B382E0E94201A8091A9
:103800000101813009F45DC018B88091C70187B902
:103810008091C00185B984B90E945338C12CD12C44
:10382000760181E0182F117080FF03C08091C901DB
:1038300002C08091CA01A895806C80937C000E9490
:103840005D3880917A00806480937A0080917A005C
:1038500086FDFCCF04E620E030E0A90180917A00EB
:10386000806480937A0080917A0086FDFCCF8091FD
:10387000780090917900280F391F411D511D29832F
:103880003A834B835C830E945A38015029813A81E4
:103890004B815C810111E2CFA0919F01B091A00109
:1038A0000E942F3B4B015C018AE0B694A794979449
:1038B00087948A95D1F782E0112331F07501640174
:1038C000B1CF80E090E04DC015B89091C6018091D5
:1038D000C701892B87B98C149D04AE04BF04E0F5A1
:1038E0002091A1013091A201A4E6B0E00E94193B11
:1038F0009B01AC012C193D094E095F090E942F3B29
:103900002B013C01A7019601281939094A095B09D5
:10391000A8EEB3E00E942F3B6B017C012091CE0109
:103920003091CF012057354E40E050E0C301B20145
:103930000E94D23AC701B6010E94D23AC90161E0A1
:1039400036120CC06091D0017091D10162177307DB
:1039500018F4861B970B02C080E090E020EC2093C7
:103960009E012496E1E10C94573BA2E0B0E0EBEB22
:10397000FCE10C943A3BA89518B88091C70187B92F
:103980008091C00184B985B98091CA010E94431910
:103990007C018091C9010E94E3184C0115B8809107
:1039A000C30184B98091C9010E944319459708F069
:1039B00017C28091C30185B98091C9010E94431942
:1039C0006C018091C60187B988B915B88091C10191
:1039D00084B98091C9010E9443192C018091CA01C8
:1039E0000E94E3185C018091C40184B98091CA01EE
:1039F0000E9443193C0120E3821621E1920628F43B
:103A000032E6C316D10438F0EBC14CE6C41643E1EC
:103A1000D40608F0E5C159EAA516B10408F06CC057
:103A200086E26816710408F4DBC1D60120EF3BE2A0
:103A300047E050E00E942F3B0091A1011091A201AC
:103A400098012C193D0940E050E00E94D23A49010A
:103A50005A01D801A619B70920EF3BE247E050E030
:103A60000E942F3B830120E030E0A90198010E94D1
:103A7000D23A9EEDC91693E0D90670F4F2E0880CB4
:103A8000991CAA1CBB1CFA95D1F7C501B401620FA1
:103A9000731F841F951F14C0DA01C901EEED6E1665
:103AA000E3E07E06A0F4E2E0880F991FAA1FBB1F87
:103AB000EA95D1F7BC01CD01680D791D8A1D9B1DCA
:103AC00025E030E040E050E00E94D23A0AC0880D84
:103AD000991DAA1DBB1D9C01AD01569547953795B3
:103AE0002795225A3E4F4F4F5F4FAAE0B0E00E9409
:103AF0002F3B4B015C0166C18E149F0408F471C01A
:103B00004A145B0408F46DC04091A1015091A201D8
:103B10008416950619F4F1E08F1A9108A091CE0150
:103B2000B091CF01A057B54E94012E193F090E94C4
:103B3000193B9A012819390940E050E00E94D23A15
:103B400069017A01A091CC01B091CD01A057B54E89
:103B500092012A193B090E94193B850120E030E0BF
:103B6000A90198010E94D23A8EED881683E098064A
:103B700080F44601570162E0880C991CAA1CBB1C0A
:103B80006A95D1F7C501B401620F731F841F951F99
:103B900014C09EEDA91693E0B906C0F4DA01C9017C
:103BA00042E0880F991FAA1FBB1F4A95D1F7BC019D
:103BB000CD016C0D7D1D8E1D9F1D25E030E040E088
:103BC00050E00E94D23A49015A01FCC04601570117
:103BD000820E931EA41EB51EB694A7949794879444
:103BE000F1C0EFE8AE16E2E1BE0608F4F5C02AE047
:103BF000822E912CA12CB12C81E00E94F61B6C012D
:103C0000E12CF12CA4E1B0E0A50194010E942F3B2E
:103C1000611571058105910521F464E670E080E08D
:103C200090E0C616D706E806F90628F446015701C3
:103C3000FEEFFA8302C02FEF2A8380E09AE0F92E8C
:103C400090910501891708F0A3C0682E712C47E0F8
:103C5000469D9001479D300D1124F901E45FFE4F10
:103C60006F0120819091BA0129138EC0218190911A
:103C7000BB01291389C0E12C02E010E020E030E014
:103C80004A81C501B4010E94A5108F3F09F042C0CE
:103C9000F601638174818581968102E010E020E065
:103CA00030E042810E94A5108F3F69F5F601428104
:103CB000FA814F1711F05FEF01C051E027E0269D18
:103CC000C001279D900D1124FC01E45FFE4F6F01A0
:103CD0006381748185819681EA809501840159838D
:103CE0000E94A5105981F601851307C08380948036
:103CF000A580B680F281FA8306C083829482A58271
:103D0000B6822A8122831401250156944794379460
:103D100027940AC0C501B40124E130E040E050E03E
:103D20000E94D23A19012A0137E0369DC001379D21
:103D3000900D1124AC01445F5E4F6A01FA0163816A
:103D4000748185819681EA809501840102191309A5
:103D50002409350942810E94A51087FD17C09201F0
:103D60008101080D191D2A1D3B1DF6016381748117
:103D700085819681EA8042810E94A510181634F050
:103D8000F092010184E65CCF8F5F5ACF88EC58CF68
:103D9000843631F1933020F527E0929FF001112411
:103DA000E45FFE4F8091BB0180838091BA018183E3
:103DB00083829482A582B6823A8132839F5F9093F8
:103DC00005010EC044E684169104A104B10408F470
:103DD00013CF5FEF5A8331CF812C912C54010CCF3C
:103DE0002296E2E10C94563BEF920F931F93CF93F0
:103DF000C42F1092050140E00E9463190E94B51C77
:103E0000809105018130B1F4CC23B1F000910F0114
:103E10001091100120911101309112016C2F70E06E
:103E200080E090E0E0900E0143E00E94A51091E058
:103E3000813019F090E001C091E0892FCF911F915E
:103E40000F91EF900895813138F0815115BC92E0C7
:103E500094BD87BD81E0089580E0089516BC81E09F
:103E600085BDA99BFECF15BC82E085BB0895A5E06A
:103E7000B0E0EDE3FFE10C943A3B009719F42FEF2B
:103E80003FEF2CC19D838C83FC016381748185810C
:103E90009681A7EFEA2E0AE010E020E030E04281B0
:103EA0000E94A51087FDEBCF0E94201A809101018E
:103EB000813029F340E0EC81FD81618180810E94A5
:103EC00063199091C9018091CA01906C992E082FB5
:103ED000006C15BC82E084BD81E287BD18B8909368
:103EE0007C000E94533888248A94C12CD12C7601FE
:103EF000C394412C512C3201439480E090E052E372
:103F0000A52EB12C16EDA895C29758F48091C70143
:103F100087B98091C00185B984B90E94663814B808
:103F200015B8F2E3AF16B10458F48091C60187B911
:103F30008091C10185B984B90E94663814B815B85A
:103F40008091C60187B98091C00185B984B99092EA
:103F50007C0010937A0080917A0086FDFCCF10934C
:103F60007A0080917A0086FDFCCF20917800309114
:103F700079003B832A8300937C0010937A00809120
:103F80007A0086FDFCCF10937A000E9462380E946E
:103F90002E1F8091C10185B984B90E94663815B879
:103FA00014B880917A0086FDFCCFA0907800B09084
:103FB00079008091C70187B98091C10185B984B921
:103FC00000937C0010937A0080917A0086FDFCCFEC
:103FD00010937A0080917A0086FDFCCF20907800C3
:103FE0003090790090927C0010937A0080917A0052
:103FF00086FDFCCF10937A000E9462380E942E1F2B
:104000008091C00185B984B90E94663815B814B88A
:1040100080917A0086FDFCCF8091780090917900A4
:104020002A813B81A90160E070E0420D531D611DB2
:10403000711D440E551E661E771EA50160E070E0DE
:10404000480F591F611D711DC40ED51EE61EF71EB7
:104050008A94811058CF4C145D046E047F04C8F517
:104060008091CC019091CD012AE0289FD001299F19
:10407000B00D1124A70196012419350946095709E5
:104080000E942F3BA30192010E94D23A8091D0015D
:104090009091D1018217930718F4281B390B1BC08C
:1040A000EC81FD8163817481858196812AEFE22E06
:1040B00008EE13E020E030E042810E94A51021E0EC
:1040C00030E0181614F420E030E0319521953109E4
:1040D00002C02FEF3FEF80EC80939E01C90125962F
:1040E000E2E10C94563BA0E0B0E0E9E7F0E20C948A
:1040F0003F3B8C0121E1922E33E0732E0E94201A67
:1041000080910101813009F416C118B88091C7016E
:1041100087B915B814B88091C9010E94E3186C01E1
:10412000E12CF12C8FEFE81AF80A692D8091C0017B
:104130000E94B61A8091C9010E94E318C816D906D8
:1041400088F4EC01CC19DD09EEE7EE16F10421F458
:10415000CB34D10568F0F5C0CC32F1E0DF0740F494
:1041600091E007C0C0E0D0E0FEE7EF16F104C1F730
:1041700090E084EFE81681E0F80609F490E0A89555
:104180009111D0CFCC32E1E0DE0710F477247394A4
:10419000F1E0EF16F10461F4C53185E0D80740F095
:1041A000892D807199E0992E09F0A8CF92E0C7C0BF
:1041B000972DE3E07E12C3C0570180E090E0A11488
:1041C000B10459F0F1E0AF1AB1088091C9010E9421
:1041D000E3188C199D09A895F2CF8C179D0748F418
:1041E0006E01C81AD90A85E6C816D10420F0712CD0
:1041F00002C0C12CD12C8091C9010E94E3185C013E
:10420000E92DE0718E2E19F00E94483802C00E94FC
:104210004D388091C9010E94E3188A159B0518F456
:10422000A81AB90A02C0A12CB12CF3E07F1285C0F4
:1042300062E0C6018C0F9D1F0E94D21A9C01D7011B
:104240000E94193B6B017C01882039F1AAE0B0E0A3
:104250009B01AC010E942F3B6B017C0188E3C816D7
:1042600089E8D80681E4E806F10408F470C0C701C3
:10427000B60128EE33E040E050E00E94D23A6901F6
:104280007A01A8EEB3E00E942F3BCAEF882089F0A4
:1042900022E434E040E050E010C0683379488144C3
:1042A000910528F7A8EEB3E0A70196010E942F3BE5
:1042B000C7EF20E134E040E050E00E94D23A809124
:1042C000BB01F80180838091BA018183C283C782D8
:1042D000D086E186F28623833483458356838AE041
:1042E000C82ED12CE12CF12C2130F5E33F07FCE066
:1042F0004F07510540F0CA01B901A70196010E947C
:10430000D23ACF5FF1CFD5010E942F3B28EE33E0A8
:1043100040E050E00E94D23ACA01B90193FCCF5F5D
:1043200028EF4C2F0E940C11F80163877487858752
:10433000968783E014C080E012C0872D10C0892FBB
:104340000EC0CC3281E0D80708F018CF09CFA8EE14
:10435000B3E0A70196010E942F3BC7EF99CFCDB7DD
:10436000DEB7EDE00C945B3BA4E0B0E0EAEBF1E2F9
:104370000C943E3B3C010E94201A80910101813047
:1043800009F469C015B887E087B918B88091C301EE
:1043900084B980E480937B0084E480BF8091C9016C
:1043A000806480937C0086E080937A000E945C3871
:1043B000109280001092810010928500109284006B
:1043C00087E286BB8091C30185B9809101018F315D
:1043D00029F48091C6018095877002C08091C70141
:1043E00091E09093810087B900E010E086B385FDED
:1043F0000AC080FFFBCF96BBA8950F5F1F4F00340C
:1044000026E0120799F71092810090E296BBE090A7
:104410008600F090870014B8409184005091850088
:10442000E416F50630F480FF04C081E086BB0F5F20
:104430001F4F86E980937A008091C9010E94E3189A
:104440006C0115B88091C30184B9003486E0180767
:1044500020F081E0CAC080E0C8C0C701A0E0B0E0A1
:10446000A80160E070E0BA01552744279A01AB012A
:10447000282B392B4A2B5B2B233031054105510565
:10448000A8F02250310941095109283399E8390728
:1044900091E44907510550F0CA01B90128EE33E013
:1044A00040E050E00E94D23A17EF01C014EF709143
:1044B000D40180919F019091A00161E0870F911D2F
:1044C00077FD9A9529833A834B835C830E94D21AA5
:1044D000DC0129813A814B815C810E942F3B20E2E3
:1044E00033E040E050E00E94D23A143F89F48091DA
:1044F000D20190E0A0E0B0E0281739074A075B0737
:1045000050F049015A01881A990AAA0ABB0A06C042
:1045100049015A0103C0812C912C54018091BB01A7
:10452000F30180838091BA018183128327833087CE
:104530004187528783829482A582B682143F49F4D0
:10454000F0EA8F16F6E89F06F1E0AF06B10460F4DA
:104550004BC0173F09F048C021E282162EE49206B4
:10456000A104B10408F040C08091C9010E94E31881
:10457000853D9340C8F714B810929D018091C90100
:104580000E94E3188C0181E080939D018091C90114
:104590000E94E318AC018091C30184B9D801A41B27
:1045A000B50B00919F011091A001CD0104960997D0
:1045B00088F098010E94283B9A0140E050E00E9458
:1045C000F43A8091D301280F2093D301080D111DD7
:1045D00087FC1A95C601801B910B8C01C19683360E
:1045E000910510F40093D40183E02496EEE00C943E
:1045F0005A3B8F929F92BF92CF92DF92EF92FF929F
:104600000F931F93CF93DF931F92CDB7DEB7C42EC6
:10461000D12C2FE0429FF0011124E85BFE4F108265
:10462000118294EF9283178210861186128613826C
:10463000148215821682138614861586168690912A
:104640000101913009F488C0B62EF82E9A3039F065
:104650006B2D8F2D0E941C240097A1F53AC08DE090
:10466000882E81E0982E50E080910501581730F592
:10467000F401319780818F1104C0F40190819B1562
:1046800031F08B1116C0F40180818F1112C0F4013A
:104690006281738184819581E12C0AE010E020E041
:1046A00030E0418159830E94A51059818F3F09F460
:1046B00053E65F5FF7E08F0E911CD6CF543609F0BA
:1046C0004BC0C6CFFC01828193818C3D954008F49C
:1046D00043C08FE08C9D80018D9D100D1124085BDF
:1046E0001E4F40E06B2D8F2D0E946319C8010E9460
:1046F0007320823019F4C8010E94B4218091010115
:10470000843120F58A3079F48FE08C9DF0018D9D05
:10471000F00D1124E85BFE4F82818A3FBCF08BE0F4
:104720008093010113C08FE08C9DF0018D9DF00DF1
:104730001124E85BFE4F8281853F8CF78381948151
:10474000A581B6810597A105B10548F70E94201AF9
:1047500017B818B814B815B80F90DF91CF911F9102
:104760000F91FF90EF90DF90CF90BF909F908F9030
:104770000895CF92DF92EF92FF92CF93C82F15B892
:104780008091C10184B99091C60197B998B980917F
:10479000CA010E9443198430910500F1C090CC01F8
:1047A000D090CD01E12CF12C893725E0920770F0F3
:1047B000C13061F414B89091C7018091C601892B72
:1047C00087B98091CA010E94E31806C020E9C20E91
:1047D0002AE1D21EE11CF11CC9EF0FC08091C40177
:1047E00084B98091CA010E94431920EFC22E2BE2A6
:1047F000D22E27E0E22EF12CC8EF17B818B814B863
:1048000015B8DC0120EA36E841E050E00E942F3B79
:10481000A70196010E94D23A2093B0013093B101D2
:104820004093B2015093B301C093B401CF91FF9074
:10483000EF90DF90CF90089590910601E5E7F1E0C9
:10484000992349F02081821303C02181621729F046
:1048500091503696F5CFE0E0F0E0CF010895A0E06A
:10486000B0E0E5E3F4E20C94403BA8950E94201AE6
:1048700080910101813009F4E8C018B88091C70126
:1048800087B98091C9010E94E3184C018091C3014E
:1048900084B985B961E18091C2010E94B61A809104
:1048A000C9010E9443195C018091C00184B985B996
:1048B00061E18091C2010E94B61A8091C9010E94F3
:1048C00043196C018091CA010E94E3188C010E9477
:1048D000201A80910101813009F4B7C018B8809185
:1048E000C70187B98091C9010E94E3187C0117B8FC
:1048F0008091C60188B987B915B88091C40184B97F
:1049000060E18091C2010E94B61A8091C9010E94A3
:104910004319EC018091CA010E94E318C817D90716
:1049200018F0C81BD90B02C0C0E0D0E0C01AD10AF1
:104930008091C10184B960E18091C2010E94B61AE0
:104940008091C9010E9443198C018091CA010E9483
:10495000E318081B190B17B80C151D0538F4960140
:10496000201B310B7401E501860103C098012C194D
:104970003D09293E334008F068C0C630D10508F42F
:1049800064C0EC16FD0620F4CE018E199F0903C009
:10499000C7018C1B9D0B23E0E216F10420F0843646
:1049A000910508F452C0C832D10538F0C8018759C2
:1049B00091098938914158F148C015B88091C101D9
:1049C00084B98091C60188B987B98091CA010E94D3
:1049D00043197C018091C00184B98091C70188B9D5
:1049E00087B98091C9010E9443199C01C70164E104
:1049F00070E00E94AA3AC701861B970B82179307A3
:104A0000A8F6E60EF71E2E153F0580F61EC0809113
:104A10000101882311F08A3019F484E180930101A7
:104A20008091060196E0899FF0011124EB58FE4F1A
:104A30009091BA0190839091BB019183138302837B
:104A4000D583C4838F5F80930601CDB7DEB7ECE0DA
:104A50000C945C3B209102018091A7019091A601EA
:104A600020FF03C0682F892F01C0692F0E941C24DA
:104A7000892B49F0109201011092020180910301EB
:104A80008E7F809303010895A1E0B0E0EAE4F5E2AF
:104A90000C94403B482F4170A42E80FF06C0B0907C
:104AA000C0018091C60190E105C0B090C101809124
:104AB000C70191E18770982E8091CB01806480932B
:104AC0007C008AE0882EC12CD12C76010FEF13E0F8
:104AD000A895692F8091C20199830E94B61A80918E
:104AE000C5018B2984B99981AA2021F086B1892139
:104AF000E9F703C086B18921E9F3B4B880917A005F
:104B0000806480937A0080917A0086FDFCCF2091AA
:104B1000780030917900AA2029F0C20ED31EE11C42
:104B2000F11C07C0A801421B530BC41AD50AE108A7
:104B3000F1088A948110CCCFC701B6012AE030E099
:104B400040E050E00E94F43AA091A101B091A2018E
:104B50000E942F3B20E034E040E050E00E94F43A15
:104B60003093AB012093AA012196ECE00C945C3BBE
:104B7000A0E0B0E0EEEBF5E20C94443B182F8091FE
:104B8000C2011130D1F49091C60197B998B99091B2
:104B9000C101982B94B985B98091CA010E9443192B
:104BA0007C01C091A101D091A2018091CB010E9412
:104BB000E3189E01281B390B18C018B89091C70143
:104BC00097B99091C00195B9982B94B9E090A10143
:104BD000F090A2018091C9010E944319E81AF90AD4
:104BE0008091CB010E94E3189C01C701821B930BAB
:104BF000B9010E94AA3A6B01E12CF12C2031310558
:104C000008F057C09091C5011130D1F48091C101D5
:104C1000892B84B995B98091CA010E9443198C01EE
:104C2000C091A101D091A2018091CB010E94E31813
:104C3000FE01E81BF90BC091CC01D091CD0117C04A
:104C40008091C001892B84B90091A1011091A2012A
:104C50008091C9010E944319081B190B8091CB0157
:104C60000E94E318FC01C091CE01D091CF01309792
:104C700011F4E1E0F0E0D80120EF3BE247E050E042
:104C80000E942F3B9F0140E050E00E94D23AAAE0F0
:104C9000B0E00E942F3B9E012057354E40E050E08F
:104CA0000E94D23AC216D306E406F50610F4690152
:104CB0007A01C701B601CDB7DEB7E8E00C94603BDE
:104CC0008F929F92AF92BF92EF92FF920F931F939A
:104CD000CF93DF9300D000D0CDB7DEB7F82E5B01C5
:104CE0000E94C9198091C50121E0F21222C0909161
:104CF000C001892B84B985B90E944F388090A101E9
:104D00009090A2018091C9010E94E318881A990A23
:104D10000091A1011091A2018091CB010E94E318A2
:104D2000F801E81BF90B88E49DE02DEF39E011E074
:104D300013C09091C101892B84B98091CA010E944E
:104D400043194C018091CB010E94E318FC0180EDD6
:104D500097E021ED33E012E02E173F0708F0D6C0B0
:104D6000809101018E3171F4809103018160809303
:104D70000301809102019F2D982349F48460809360
:104D8000020105C08EE180930101F0920201A81496
:104D9000B90410F48A189B08D40120EF3BE247E0E5
:104DA00050E00E942F3B9F0140E050E00E94D23A29
:104DB000AAE0B0E00E942F3B31E0F31205C0209141
:104DC000CE013091CF0104C02091CC013091CD01B2
:104DD0002057354E40E050E00E94D23A8F2D298373
:104DE0003A834B835C830E94B8254B015C01298187
:104DF0003A814B815C81621773078407950710F431
:104E000049015A0181E040E0F81205C06091BC01FF
:104E10008091BB0104C06091BA018091BC010E94E5
:104E2000F9220E94C1198091020182FF28C00091DD
:104E30004B0110914C0120914D0130914E01609138
:104E4000B5017091B6018091B7019091B801E090E1
:104E50004A014091B9010E94A510813069F0109279
:104E6000AC011092AD011092AE011092AF018F2DE6
:104E700084608093020103C0812C912C54018091A5
:104E8000AC019091AD01A091AE01B091AF01881538
:104E90009905AA05BB0508F0CEC080E00E94B923A1
:104EA0008092AC019092AD01A092AE01B092AF01A0
:104EB00080914B0190914C01A0914D01B0914E0118
:104EC0008093B5019093B601A093B701B093B80158
:104ED00080914A018093B9018091BC018093A50122
:104EE0008091BA019091BB0121E0F21207C080933A
:104EF000A6019093A70110920A019DC09093A6016C
:104F00008093A70181E080930A0195C031E6A31642
:104F1000B10408F090C08815990508F08CC0809104
:104F2000C9010E94E3185C018091CA010E94E31844
:104F30009501281B390BC9012A3F3105C0F52FE126
:104F400020930101212F246120930201113041F4AB
:104F50002091CE013091CF012057354E42E007C05D
:104F60002091CC013091CD012057354E43E0409344
:104F70000A014AE0489FD001499FB00D11240E94C8
:104F8000193B940140E050E00E94D23A8091D00158
:104F90009091D1018217930718F4281B390B02C096
:104FA00020E030E03093A9012093A8010EC080E2F8
:104FB00080930101812F846080930201113011F4EC
:104FC00088E001C089E080930A01812F0E94442576
:104FD000809103018160809303018091BC018093E3
:104FE000A5019091BA012091BB01113029F4909351
:104FF000A6012093A70104C02093A6019093A701C6
:1050000040E06091A7010E94F92280914B019091AC
:105010004C01A0914D01B0914E018093B501909348
:10502000B601A093B701B093B80180914A01809373
:10503000B9010E94C1190F900F900F900F90DF914E
:10504000CF911F910F91FF90EF90BF90AF909F90E5
:105050008F900895A0E0B0E0E0E3F8E20C94423BCA
:105060008B3E914020F498E2E92EF12C04C088EEAA
:10507000E82EFF24F3949091C5018091C101892B02
:1050800084B98091CA010E9453196C018091C501B5
:1050900085B98091CA010E945319EC01C6018E0D99
:1050A0009F1D8C179D0708F04DC08091C20184B9E7
:1050B00085B918B88091C70187B98091CB010E944A
:1050C00053195C0117B88091C70188B987B98091DD
:1050D000C5019091C001982B94B915B88091C90170
:1050E0000E9453198C018091C50185B98091C90135
:1050F0000E945319801B910B8C0118B88091C70135
:1051000087B98091C5019091C001982B94B995B948
:105110008091CB010E94531988349F4028F089E187
:105120008093020184E009C08CEBA81682E0B806E7
:1051300048F089E28093020186E080930A01CC194D
:10514000DD0963C018B88091C70187B99091C50186
:105150008091C001892B84B985B98091C9010E94D1
:1051600053198C018091C00185B98091C9010E94B9
:105170005319E801C81BD90BE80EF91EE016F10619
:1051800008F0BBC08091C20184B915B88091C701F5
:1051900087B988B98091CB010E9453197C0118B856
:1051A0008091C60187B98091C5019091C101982B6A
:1051B00094B995B98091CA010E9453198C018091CC
:1051C000C10185B98091CA010E945319081B190BAE
:1051D00015B89091C60198B997B98091CB010E94FA
:1051E0005319813D934028F48AE18093020185E0C0
:1051F0000AC03DECE31630E1F30608F07EC08AE217
:105200008093020187E080930A018FE1809301017E
:10521000809103018160809303014091BC01409320
:10522000A5018091BA019091BB010C171D0728F4CC
:105230008093A6019093A70104C09093A601809348
:10524000A701CE0162E370E00E94AA3ACE01861B5C
:10525000970B0817190750F06C0F7D1F6017710727
:1052600028F0809102018064809302016091A7017F
:105270008091A6010E9463199091C8018091C70195
:10528000892B87B99091C00194B92091020120FF28
:1052900013C018B895B9C091A101D091A201809115
:1052A000C9010E9453199E01281B390BC901409165
:1052B000CE015091CF010AC088B915B88091C901BB
:1052C0000E9453194091CC015091CD014057554E49
:1052D0009C01A0E1B7E20E94193B9A0140E050E036
:1052E0000E94D23A2093B0013093B1014093B201B1
:1052F0005093B3018AEF8093B401CDB7DEB7EAE0F3
:105300000C945E3BEF92FF920F931F93CF93DF932A
:105310008091CB010E94E3188C018091CA010E9408
:10532000E3187C0160E18091C2010E94B61A80916D
:10533000C9010E944319EC0115B80E9454388091AC
:10534000C00185B98091C9010E944319C034D6407B
:1053500008F05FC08133914108F45BC014B815B800
:105360008091C70188B90E9454388091C00184B9E6
:105370008091C9010E944319853F910508F049C0F9
:1053800060E18091C2010E94B61A8091C9010E9419
:105390004319EC01CD3D82E0D80760F482E28093AE
:1053A0000101809103018160809303018AE0809371
:1053B0000A0131C08091C00185B90E94543815B8E6
:1053C0008091C9010E944319853F910510F5809194
:1053D0000101813229F490910301916090930301BE
:1053E00081E2809301018BE080930A018091AC01FE
:1053F0009091AD018C179D0700F5AE0160E070E063
:105400004093AC015093AD016093AE017093AF0136
:1054100002C080E013C08091BC018093A5018091FF
:10542000BA018093A6018091BB018093A7010E1958
:105430001F091093A9010093A80181E0CDB7DEB741
:10544000E6E00C94623BEF92FF920F931F93CF9391
:10545000DF938091C9010E94E318EC018091CA0199
:105460000E94E3187C018091CB010E94E3188C011B
:1054700017B88091C60188B92091C50125B99091CE
:10548000C101922B94B982E390E00E943F14809175
:10549000C60187B98091CA010E94E3180A97F8F4FF
:1054A00083E2809304018CE080930B018091BC0126
:1054B000809335018091BA01809336018091BB01C0
:1054C00080933701CE018E199F0990933901809303
:1054D0003801C01BD10BD0933B01C0933A01CDB72B
:1054E000DEB7E6E00C94623B0F931F93CF93DF93FC
:1054F000009711F480E0C5C0162FEC010E94201A1D
:10550000809101018130B1F315B818B88091C601BE
:10551000012F017010FF04C09091C10194B904C023
:1055200014B89091C701892B87B986E080937A00DF
:1055300080E480937B008091CA01806C80937C0022
:1055400084E480BF0E945838A89510928000109281
:105550008100109285001092840087E286BB9091B2
:10556000C601E12FE47012FF0BC098B988E000007B
:105570008150E9F78091810081608093810006C0AD
:105580008091810081608093810098B980E090E0F3
:1055900031E026B325FD09C020FFFBCF36BB0196C5
:1055A00080329105B1F710E001C013E01092810044
:1055B00030E236BB40918600509187006091C00177
:1055C0003091C101362B34B917B8609184007091C5
:1055D00085004617570728F420FF03C021E026BBAB
:1055E000019626E920937A00112309F483CF60E025
:1055F00070E0A0E0B0E0DC0199278827482B592B08
:105600006A2B7B2BEE2331F0415E5F4F6F4F7F4F54
:1056100083E001C084E001118F5F90E0A0E0B0E082
:1056200084179507A607B70738F49A01AB01281B22
:10563000390B4A0B5B0B03C020E030E0A901A2EE5E
:10564000B4E00E942F3B6B5F7F4F8F4F9F4F2AE04C
:1056500030E040E050E00E94D23A288339834A8308
:105660005B83002331F0223E34404105510540F078
:1056700005C0253631054105510510F0812F01C0C7
:1056800082E0DF91CF911F910F910895A4E0B0E0E7
:10569000ECE4FBE20C943C3B1092D7011092D80151
:1056A0001092D9011092DA011092DB01009709F4EF
:1056B00017C16C01FC016381748185819681E12CA5
:1056C00000ED17E020E030E042810E94A51087FF46
:1056D00007C140E0F601618180810E94631965E0A5
:1056E000CE0101960E94742A833059F489819A81EF
:1056F000AB81BC8189389341A105B10520F015E04B
:1057000023C08111EDC061E0CE0101960E94742A90
:105710008230B1F4F6016381748185819681E12C38
:1057200008E210E020E030E042810E94A51087FFEF
:10573000D7C062E0CE0101960E94742A12E001C037
:1057400011E0833009F0CCC0F6016381748185815A
:1057500096812FEF42810E940C114B015C018091D8
:10576000D0019091D1010596E091CC01F091CD014D
:10577000C090CE01D090CF01CE0EDF1E6AE070E067
:105780000E94AA3AC60ED71EB601680D791D10FFF9
:1057900016C06057754EE057F54E89819A81AB81EE
:1057A000BC81803727E19207A105B105A0F08C31BB
:1057B0009542A105B10590F024E130E014C0898143
:1057C0009A818C3D25E0920748F08838934148F053
:1057D0002EEC3FEF08C026E230E005C026EF3FEF99
:1057E00002C02BEF3FEF4091D40180919F01909137
:1057F000A001840F911D47FD9A958901330F220B5B
:10580000330BA9019801280F391F411D511D6B0150
:10581000E12CF12CC701B6010E94803A9F0140E0C3
:1058200050E00E94D23ACA01B90125E030E040E0E0
:1058300050E00E94D23A63E0C9010E94D21A5C0192
:1058400029813A814B815C8117EF9AE0492E512CD6
:10585000612C712C213A86E8380781E04807510510
:1058600060F0CA01B9016B5F7F4F8F4F9F4FA3015B
:1058700092010E94D23A1F5FEDCFD5010E942F3BCB
:105880009B01AC018AE0882E912CA12CB12C213AED
:10589000E6E83E07E1E04E07510560F0CA01B901B4
:1058A0006B5F7F4F8F4F9F4FA50194010E94D23AAB
:1058B0001F5FEDCFC701B6010E94803A1093D70158
:1058C00020E137E240E050E00E94D23A2093D80134
:1058D0003093D9014093DA015093DB0181E001C09C
:1058E00080E02496E0E10C94583BA1E0B0E0EBE7C7
:1058F000FCE20C944A3B89830E94CF34898188233F
:1059000019F060E08BE202C063E78DE24DE20E9495
:105910004A0B60E088E893E10E948E110E94CF3428
:105920002196E2E00C94663B8F929F92AF92BF92D9
:10593000CF92DF92EF92FF92CF93DF936C0180E0E2
:105940000E9450120E94033787E291E00E94A43423
:10595000E12CF12C28E440E0C701B6010E94EB34B1
:105960008AE70E945C3780E00E94752C18B885E0B9
:1059700087B984E084B915B860E079E08DE390E000
:10598000A70196010E94D23A69017A01213884E880
:1059900038078EE14807510530F0CD2CDE2CEF2C76
:1059A000FF2484E00FC021383E434105510548F0F3
:1059B00036E0F694E794D794C7943A95D1F783E00C
:1059C00001C081E01092810093E29093800090E109
:1059D000909381001092850010928400D0928900EB
:1059E000C092880096013695279530938B002093BE
:1059F0008A00806180938100C2E3D1E024E6822E98
:105A0000912CA12CB12C0E94CF348C2F90E0A0E0DF
:105A1000B0E025E240E0BC01CD010E94EB34D33080
:105A200020F484EF91E00E943F1460E080E090E079
:105A30000E948E11D82F813079F482E390E00E9489
:105A40003F1460E088EC90E00E948E11811114C038
:105A5000C03698F4CB5F11C0833021F4C43668F4AB
:105A6000CF5F0BC0843021F4CC2339F0C15005C086
:105A7000C53018F0C55001C0D0E0AC2FB0E0A70190
:105A800096010E942F3BA50194010E94D23A3093C7
:105A90008B0020938A00D111B6CF10928100109212
:105AA000800014B8DF91CF91FF90EF90DF90CF90FE
:105AB000BF90AF909F908F900895109206010E9422
:105AC00003378BE291E00E948D3481E00E94752CB7
:105AD0008DE20E945C3762E080E090E00E948E11CF
